:020000040800F2
:100000000008002099010008771B0008C3160008AB
:10001000751B000843060008D51E000800000000FC
:100020000000000000000000000000007B1B000832
:100030004506000800000000791B00087D1B000831
:10004000B3010008B3010008B3010008B3010008C0
:10005000B3010008B3010008B3010008B3010008B0
:10006000B3010008B3010008B3010008B3010008A0
:10007000B3010008B3010008B3010008B301000890
:10008000B3010008B3010008B3010008B301000880
:10009000B3010008B3010008B3010008B301000870
:1000A000B3010008B3010008B3010008B301000860
:1000B000B3010008B3010008B3010008B301000850
:1000C000B3010008B3010008B3010008B301000840
:1000D000B3010008B3010008B3010008B301000830
:1000E000B3010008B3010008B301000800F002F8F2
:1000F00000F042F80AA090E8000C82448344AAF180
:100100000107DA4501D100F037F8AFF2090EBAE87D
:100110000F0013F0010F18BFFB1A43F0010318473B
:100120006C2200008C220000103A24BF78C878C1ED
:10013000FAD8520724BF30C830C144BF04680C60ED
:10014000704700000023002400250026103A28BF35
:1001500078C1FBD8520728BF30C148BF0B60704739
:10016000642900F0AB80732900F00B8200207047F7
:100170001FB51FBD10B510BD00F029FA1146FFF7DD
:10018000F7FF01F04BFF00F047FA03B4FFF7F2FF6F
:1001900003BC00F04FFA00000948804709480047B7
:1001A000FEE7FEE7FEE7FEE7FEE7FEE7FEE7FEE727
:1001B000FEE7FEE704480549054A064B7047000084
:1001C000D71B0008ED0000080002002000080020F6
:1001D00000040020000400200FB41CB5074B06AA41
:1001E0007B4469460090059800F0A1F9002069461B
:1001F00000F0B0F91CBC5DF814FB000071030000B6
:100200002DE9F0410E460446002020622046E168B8
:10021000884730B3252805D0D4E901219047206ACA
:10022000401CF2E7E168204600278847050018D007
:10023000A5F14100192802D820354FF40067324655
:10024000294620462760FFF78BFF40B1012804D0E4
:10025000F61D26F007060836D8E7361DD6E72846ED
:10026000DAE7206ABDE8F08170B50C460546012A40
:1002700005D02878800600D5EA69002302E0012332
:1002800005E05B1C934202D2E05C0028F9D1A8692A
:10029000E618C01AA861286A184428622846AFF3F5
:1002A000008004E0D5E9012114F8010B9047B44225
:1002B000F8D32846AFF3008070BD00002DE9F0416F
:1002C0000646002410687529314616A510D0AFF3F4
:1002D0000080002802DA404213A507E031688A074F
:1002E00001D512A502E0490704D511A5012401E0BA
:1002F000AFF3008000210A2206F1240709E0B0FBD9
:10030000F2FCB0FBF2F302FB1C00303078541846CC
:10031000491C0028F3D123462A463046BDE8F04167
:1003200000F0A7B8000000002D0000002B00000026
:1003300020000000401ECAB210F8011F8A4202D0FD
:100340000029F9D1002070474FF0000200B5134694
:1003500094469646203922BFA0E80C50A0E80C50E5
:10036000B1F12001BFF4F7AF090728BFA0E80C5096
:1003700048BF0CC05DF804EB890028BF40F8042B8F
:1003800008BF704748BF20F8022B11F0804F18BFFC
:1003900000F8012B704710B5044610F0030F08BF9A
:1003A00011F0030F40F015804FF0013E121FC0F214
:1003B0000E8051F8043BA3EB0E0C2CEA030C1CEA54
:1003C000CE1C08BF40F8043BF0D0A1F1040102F1BB
:1003D0000402521E08DB11F8013B002B00F8013B20
:1003E000F7D1114600F0D1F8204610BD4FF0013C86
:1003F00050F8042B51F8043B9A4221D1A2EB0C0394
:10040000934313EACC1317D150F8042B51F8043B53
:100410009A4215D1A2EB0C03934313EACC130BD1F0
:1004200050F8042B51F8043B9A4209D1A2EB0C037B
:10043000934313EACC13DBD04FF00000704700BFAA
:10044000D01A01BAB1FA81F101F0180122FA01F0D3
:10045000CB40C1F12001DBB2C0B2C01A2CFA01F3CB
:10046000D11A914311EAC311E6D170477047704722
:1004700070472DE9F0470D4699469246044600F133
:1004800024080168880604D5E06921F01001216084
:1004900000E00120A84201DD471B00E00027A16920
:1004A0007A1902EB0900081AA0612078C00602D46C
:1004B0002046AFF30080002608E0D4E901211AF8B5
:1004C00006009047206A401C761C20624E45F4DBF3
:1004D0002078C0060AD52046AFF3008006E0D4E9B4
:1004E000012130209047206A401C2062381EA7F16D
:1004F0000107F4DC07E0D4E9012118F80500904772
:10050000206A401C2062281EA5F10105F3DC20466C
:10051000AFF300802078000602D50220BDE8F08706
:100520000120FBE701694A1C02610878704700B5A9
:100530008FB0CDE901310021059105497944CDE91C
:10054000031011466846FFF75BFE0FB000BD0000C8
:10055000E5FFFFFF0A6802F8010B0A60704710B55B
:10056000436913B1AFF3008001E0FFF77DFE012086
:1005700010BD127800F124010A7000224A70012295
:10058000EDE711684FF0FF32E9E74FF00002042970
:10059000C0F0128010F0030C3FF4D8AECCF1040C84
:1005A000BCF1020F18BF00F8012BA8BF20F8022BE6
:1005B000A1EB0C01FFF7CABE5FEAC17C24BF00F8C3
:1005C000012B00F8012B48BF00F8012B704775463E
:1005D00000F02CF8AE4605006946534620F00700AF
:1005E000854618B020B5FFF7E5FDBDE820404FF087
:1005F00000064FF000074FF000084FF0000B21F00D
:100600000701AC46ACE8C009ACE8C009ACE8C009D9
:10061000ACE8C0098D46704710B50446AFF30080C2
:100620002046BDE81040FFF7B0BD0000004870470D
:10063000A001002001491820ABBEFEE72600020001
:100640007047FEE77047000070B5044600F008F9F7
:100650000546601C02D004480078044400F000F90C
:10066000401BA042FAD370BD280000202DE9F84FAE
:10067000DFF8B8910024A9F1040B23460F2709F1F4
:10068000040AABF1040EC9E00125A5402A40AA42A4
:100690007DD1674ED1F804C0ACEB0608B44532D02A
:1006A00014DCBCF1030F3AD009DCBCF1000F2AD0F6
:1006B000BCF1010F1CD0BCF1020F31D11DE0BCF127
:1006C000110F17D0BCF1120F2AD119E0B8F5881F0D
:1006D00019D006DCB8F5803F15D0B8F5801F1FD1C2
:1006E00011E0B8F5001F0ED0B8F5041F18D10AE0CC
:1006F000CB6815E0CB681B1D12E0CB6808330FE018
:10070000CB680C330CE08B682BB1012B4FF0080346
:1007100003D0456104E0042302E0056100E000230A
:10072000FF2A01D8064601E000F104064FEA8405DD
:1007300001D9A5F12005D6F8008007FA05FC28EAC2
:100740000C0803FA05F548EA0508C6F800804D686C
:10075000ED0062D5374DAE6946F00106AE61AD6978
:1007600024F0030605F001050095334D06EB050C5A
:10077000DCF80850A607360F07FA06F825EA080540
:10078000DFF8B880404503D14FF0000817E044E09F
:10079000DFF8AC80404502D14FF001080FE0DFF8F0
:1007A000A480404502D14FF0020808E0DFF89880AD
:1007B000404502D14FF0030801E04FF0040808FA69
:1007C00006F848EA0508CCF808804D68D9F80060BA
:1007D000ED024D4601D5164300E096432E604D686C
:1007E000DAF80060AD02554601D5164300E09643A5
:1007F0002E604D68DBF80060AD035D4601D5164301
:1008000000E096432E604D68DEF80060ED0375460B
:1008100001D5164300E096432E60641C0D682A46FD
:10082000E5407FF431AFBDE8F88F000008040140D7
:1008300000001110001002400000014000080140BB
:10084000000C014000100140001401408068084085
:1008500000D0012070470AB1016170470904FBE72D
:1008600001488068704700002800002070B504002F
:1008700025D094F83D00002520B984F83C5020464E
:1008800000F04EF9242084F83D002068016821F032
:10089000010101602068016841F4004101602068A5
:1008A000016821F40041016000F092FA4D4A61684C
:1008B000914201D84C4900E04C49884201D20120C4
:1008C00070BD4B492368B0FBF1F15E6826F03F062E
:1008D0000E435E606368934206D94FF496735943A2
:1008E0004FF47A73B1FBF3F12368491C1E6A26F0BA
:1008F0003F06314319626168914210D84900401E99
:10090000B0FBF1F2521CC2F30B02042A01D2042004
:1009100022E0B0FBF1F0401CC0F30B001CE0A26829
:10092000F2B301EBC10303EB0116431EB3FBF6F375
:100930005B1C43F480431B0549D092B301EBC10219
:1009400002EB0111401EB0FBF1F0401CC0F30B00A4
:1009500040F4804040F400402168CA694CF6FF73BF
:100960009A431043C861D4E9071001432068026824
:1009700022F0C00211430160D4E903010143206861
:10098000826848F2FF339A4311438160D4E905013C
:1009900008432168CA6822F0FF021043C86001E0E2
:1009A0000EE016E02068016841F001010160256455
:1009B000202084F83D00256384F83E50002070BD5F
:1009C00001EB4106431EB3FBF6F35B1CB3E70120CA
:1009D000C2E701EB4101401EB0FBF1F0401CC0F347
:1009E0000B00B7E7A086010080841E0000093D00CF
:1009F00040420F002DE9F84F1F4690468A460446B4
:100A0000DDF82890FFF72CFF054694F83D002028DC
:100A10007FD11923012240492046009500F0E4FED1
:100A2000002876D194F83C00012872D0012084F887
:100A30003C0020680168C90703D1016841F0010149
:100A400001602068016821F400610160212084F8C0
:100A50003D00102084F83E0000262664C4F824805F
:100A60006785608D20852D48E0622B464A465146B9
:100A7000204600F03FFE90B92068416980690090EF
:100A800036E02A464946204600F054FF50B1206C1B
:100A9000042804D12068016841F40071016001203C
:100AA000BDE8F88F606A216800780861606A401CC0
:100AB0006062618D491E6185218D491E89B2218543
:100AC00022685369DB435B070BD451B10078106196
:100AD000606A401C6062608D401E6085208D401EF3
:100AE00020852A464946204600F052FE0028CED1F5
:100AF000208D0028C5D154F83D0B016841F40071E8
:100B00000160202004F81E09E67766770020C7E719
:100B1000FFE70220C4E70000020010000000FFFF12
:100B200010B586B0002100910191029103910068F7
:100B30001349884222D1134CA06940F00800A061FB
:100B4000A069694600F0080004904FF440700090DE
:100B500012200190032003900B48FFF787FD0B48FC
:100B6000416841F0E06141F002014160E06940F418
:100B70000010E061E06900F40010049006B010BDC0
:100B80000054004000100240000C014000000140F1
:100B90000248816802781144816070472800002073
:100BA000074810B5016841F010010160032000F012
:100BB00067F80F2000F006F800F024F8002010BDC0
:100BC0000020024070B50D4D04464FF47A7128782C
:100BD000B1FBF0F00A490968B1FBF0F000F0CEFA81
:100BE00048B9102C07D200222146501E00F028F8E8
:100BF00000206C6070BD012070BD00002800002046
:100C0000340000200C4808B5816941F00101816180
:100C1000816901F001010091C16941F08051C16118
:100C2000C06900F0805000900448416821F0E06104
:100C300041F00071416008BD001002400000014019
:100C4000F0B40E4B1B680C46C3F30223C3F1070537
:100C5000042D00D90425191D072901D2002300E025
:100C6000DB1E012606FA05F1491E214099409E40EF
:100C7000761E16403143F0BC01F02DB90CED00E0BA
:100C8000064900F0070208684FF6FF03184040EAE3
:100C90000220034A10430860704700000CED00E09A
:100CA0000000FA052DE9F0470F46050061D0434EDC
:100CB000306800F00700B84209D2306820F0070021
:100CC00038433060306800F00700B84251D12868DE
:100CD0003B4C810712D5400703D5606840F4E060C3
:100CE00060602878000703D5606840F46050606059
:100CF0006068A96820F0F000084360602878C007A9
:100D000028D06868012810D02168022810D08907EF
:100D100000292EDA616821F0030101436160FFF7C9
:100D20009FFD804641F288390DE021688903EFE795
:100D30008901EDE7FFF794FDA0EB0801494502D9D1
:100D40000320BDE8F0876068696800F00C00B0EB34
:100D5000810FEFD1306800F00700B8420BD930683E
:100D600020F0070038433060306800F00700B842D8
:100D700001D00120E5E72878400705D56068E968DB
:100D800020F4E060084360602878000706D56068BA
:100D9000296920F4605040EAC100606000F038F832
:100DA0006168084AC1F30311515CC84006490860F4
:100DB00006480068FFF706FF0020C2E70020024057
:100DC0000010024072230008340000202C00002094
:100DD0000448054900684968044AC1F30221515C8E
:100DE000C8407047340000200010024082230008F1
:100DF0000448054900684968044AC1F3C221515CAE
:100E0000C8407047340000200010024082230008D0
:100E10000E4A51680E4801F00C03042B11D0082B28
:100E20000FD10C48C1F38343C903C05C0AD5516894
:100E3000084AC1F34041921E515C054A5043B0FB41
:100E4000F1F0704704494843704700000010024029
:100E500000127A006223000800093D002DE9F84FD6
:100E6000040070D02078C04DC00749D06868C0F336
:100E70008100012807D06868C0F38100022809D1E9
:100E80006868C00306D52868800339D560680028E3
:100E9000E7D035E06068B0F5803F0BD010B1B0F519
:100EA000A02F11D0286820F480302860286820F412
:100EB000802002E0286840F480302860606890B1AB
:100EC000FFF7CEFC06460AE0286840F48020286040
:100ED000F0E700BFFFF7C4FC801B642873D82868C4
:100EE0008003F7D50CE0FFF7BBFC064605E000BF2A
:100EF000FFF7B6FC801B6428F0D828688003F7D47D
:100F000020789A4E80074FF001094FF0000839D53C
:100F1000686810F00C0F07D06868C0F381000228E1
:100F200009D16868C00306D42868800714D52069F1
:100F3000012808D110E02069B0B1C6F80090FFF791
:100F40008FFC074605E00AE1FFF78AFCC01B022878
:100F5000C4D828688007F7D52868616920F0F800B0
:100F600040EAC10028600DE0C6F80080FFF778FC79
:100F7000074604E0FFF774FCC01B022823D828684A
:100F80008007F7D4207800072CD57948A169D9B11A
:100F9000C0F80090FFF764FC074604E0FFF760FC30
:100FA000C01B02280FD8686A8007F7D571484FF434
:100FB000FA510068B0FBF1F0009000BF0098411EAC
:100FC0000091FAD20EE080E0C0F80080FFF748FC04
:100FD000074604E0FFF744FCC01B022875D8686A86
:100FE0008007F7D42078400760D5E8690027C00063
:100FF00008D4E86940F08050E861E869012700F012
:10100000805000905C480168C90513D4016883468C
:1010100041F480710160FFF723FC824606E000BFC7
:10102000FFF71EFCA0EB0A0064284ED8DBF8000096
:10103000C005F5D5E06801280AD008B1052813D00D
:10104000286A20F001002862286A20F0040002E0EB
:10105000286A40F001002862E06841F2883B98B1BC
:10106000FFF7FEFB82460BE0286A40F0040028628E
:10107000EEE700BFFFF7F4FBA0EB0A0159455AD891
:10108000286A8007F6D50CE0FFF7EAFB824605E008
:10109000FFF7E6FBA0EB0A0159454CD8286A800708
:1010A000F6D41FB1E86920F08050E861E06988B3A8
:1010B0006968C1F38101022944D00228C6F8608022
:1010C00004D0FFF7CDFB044638E034E0FFF7C8FB5F
:1010D000074604E0FFF7C4FBC01B02282BD8286892
:1010E0008001F7D4206AB0F5803F05D16868A16817
:1010F00020F4003008436860D4E9080108436968B7
:1011000021F4741108436860C6F86090FFF7A8FBEB
:10111000044606E025E000BFFFF7A2FB001B022803
:1011200009D828688001F7D51BE000BFFFF798FBBE
:10113000001B022802D90320BDE8F88F286880012F
:10114000F4D40EE00128F7D06868226A00F48031F8
:10115000914204D1616A00F47010884201D00120EC
:10116000EAE70020E8E700000010024000004242E9
:1011700080044242340000200070004010B5401E40
:10118000B0F1807F01D3012010BD4FF0E0246061F9
:101190000F21601700F09FFE0020A0610720206152
:1011A000002010BD10B590F83C20012A22D0012269
:1011B00080F83C20CA688C6822F4407222434C6854
:1011C00022F4806222430C6822F4006222430C69FC
:1011D00022F4805222434C6922F400522243C9690E
:1011E000002322F480420A4301684A6480F83C30BC
:1011F000002010BD022010BD70B590F83C20012ADF
:1012000026D0012480F83C40022280F83D2003686B
:101210005A689D6822F070060A6832435A600D4B86
:1012200002689A4208D0B2F1804F05D00A4B9A4228
:1012300002D00A4B9A4204D1496825F08003194331
:10124000916080F83D40002180F83C10084670BD58
:10125000022070BD002C0140000400400008004046
:1012600000B585B0002100910191029103910068C1
:101270000B49884212D10B48816941F00401816118
:101280008069694600F0040004904FF4706000909B
:101290000220019003900448FFF7E8F905B000BD73
:1012A000002C0140001002400008014070B50446C7
:1012B00090F83C0000260D4601280FD0012084F84C
:1012C0003C006AB1042A1DD0082A2FD00C2A3FD036
:1012D0000126002084F83C00304670BD022070BD1D
:1012E000206800F0BDFC2068816941F0080181613F
:1012F0002068816921F004018161206881692A697F
:10130000114311E0206800F0D3FC2068816941F4AA
:10131000006181612068816921F4806181612068B8
:1013200081692A6941EA02218161D2E7206800F0DF
:10133000EBFC2068C16941F00801C1612068C16906
:1013400021F00401C1612068C1692A69114311E0DB
:10135000206800F005FD2068C16941F40061C161A9
:101360002068C16921F48061C1612068C1692A696E
:1013700041EA0221C161ACE710B5040003D094F842
:101380003D0010B107E0012010BD002084F83C00B2
:10139000204600F01FF8022084F83D00211D20683F
:1013A00000F01AFC012084F8460084F83E0084F81E
:1013B0003F0084F8400084F8410084F8420084F83B
:1013C000430084F8440084F8450084F83D00002080
:1013D00010BD000008B500680649884208D10648DB
:1013E000816941F400618161806900F400600090CE
:1013F00008BD0000002C01400010024010B504465A
:10140000022249B104290ED0082913D094F84100D2
:10141000012816D0012010BD94F83E000128F9D112
:1014200084F83E200FE094F83F000128F2D184F8C0
:101430003F2008E094F840000128EBD184F84020D8
:1014400001E084F841200122206800F0FBFB0F49F5
:101450002068884203D1426C42F400424264206812
:10146000884208D0B0F1804F05D00949884202D0A7
:101470000849884204D1816801F00701062903D098
:10148000016841F001010160002010BD002C014005
:10149000000400400008004070B5040004D094F837
:1014A0004100002510B106E0012070BD84F84050D5
:1014B000204600F023F8242084F841002068C16809
:1014C00021F40051C160204600F06CFC20680169E5
:1014D00021F4904101612068416921F02A014161B4
:1014E0002068C16841F40051C1606564202084F81F
:1014F000410084F842006563002070BD30B585B0BE
:1015000000240094019402940394006817498842CF
:101510002AD11748816941F480418161816901F4D0
:1015200080410491816941F0080181618069114D18
:1015300000F0080004904020009002200190032059
:10154000039069462846FFF791F88020CDE9000412
:10155000694628460294FFF789F80748416841F038
:10156000E06141F00401416005B030BD0038014048
:1015700000100240000C0140000001402DE9F8433A
:10158000044690F84200994616460D46202802D09F
:101590000220BDE8F883ADB1A6B10020606422212D
:1015A00084F842102063FFF75BF9A6858046E68544
:1015B000A0684FF48057B84201D1206920B12E466F
:1015C000002526E00120E4E7002622E04346002231
:1015D00020212046CDF8009000F040FC08B1032007
:1015E000D7E726B1A068B8421BD038B108E0206820
:1015F0004068C0F3080025F8020B07E0206980B1BD
:101600002068406800F07F0006F8010BE08D401E66
:10161000E085E08D0028D9D1202084F84200002008
:10162000B7E720684068EFE72DE9F843044690F8F3
:1016300041001F4616460D46202802D00220BDE874
:10164000F8837DB176B100206064212084F84100E8
:10165000FFF706F9A6848046E684A068B0F5805FAF
:1016600002D003E00120EAE7206910B12E460025F0
:101670000EE000260CE08021204600F0EFFBA0B930
:10168000AEB116F8010B21684860E08C401EE08482
:10169000E08C43464FF0000200970028EBD14FF05A
:1016A0004001204600F0DAFB30B10320C7E735F8EF
:1016B000020BC0F30800E6E7202084F84100002078
:1016C000BDE7FEE701684A69D24352050FD46FF4C3
:1016D00080624A61002140F8301F202242738173EA
:1016E000026942F004020261017301207047002088
:1016F00070470000F8B50446C06A1E460D461746FE
:10170000082807D0012805D010F5803F02D0206BB3
:10171000122804D12068016841F4807101601346E9
:1017200000224FF001112046009600F05DF840B114
:1017300020680068C00502D54FF4007020640320C3
:10174000F8BD2069B0F5804F0ED00620216800EA70
:10175000D51040F0F000086133463A460B49204668
:1017600000F08AF878B902E005F0FE0000E0E8B287
:1017700021680861054933463A46891F204600F032
:101780007BF80028DCD00120F8BD00000800010033
:1017900070B516460D4604461EE02046FFF792FF40
:1017A00008B1012070BD681C16D0FFF759F8801BE6
:1017B000A84200D885B920684069C04340070BD5CE
:1017C000002044F8300F20216173A073216941F09B
:1017D000200121612073E4E720684069C04340078D
:1017E000DBD4002070BD00002DE9F0479846174675
:1017F0000D460446C1F30746DDF820902AE000BFFD
:10180000B8F1FF3F26D0FFF72BF8A0EB09014145C7
:1018100002D8B8F1000F1DD12068012E16D08069C2
:1018200025EA00000004000C12D00020B84211D1BB
:10183000002044F8300F20216173A073216941F02A
:101840002001216120730120BDE8F0874069E7E7AE
:101850000120EBE72068012E0AD0806925EA00000C
:101860000004000C06D00020B842C9D00020EBE7ED
:101870004069F3E70120F7E72DE9F047984616465F
:101880000D4604464FF000094FF0200AC1F3074708
:1018900023E020684069C043400515D420680168F2
:1018A00041F40071016021686FF480604861C4F800
:1018B000309084F83DA084F83E90216C41F0040102
:1018C000216484F83C9021E0701C06D0FEF7C8FF2C
:1018D000A0EB0800B04203D816B1012F1FD021E0C1
:1018E0002068012F15D0806925EA00000004000C53
:1018F00018D000BF44F8309F84F80DA084F80E90F3
:10190000216941F02001216184F80C900120BDE89B
:10191000F087406925EA00000004000CEAD1206845
:10192000406901E02068806925EA00000004000C9D
:10193000AFD1ECE770B516460D4604461EE02046D2
:10194000FFF7C0FE08B1012070BD681C16D0FEF77D
:1019500087FF801BA84200D885B920684069C04332
:1019600000060BD5002044F8300F20216173A073CE
:10197000216941F0200121612073E4E7206840697A
:10198000C0430006DBD4002070BD00001CB500F091
:10199000F00141F00C028DF8042041F00801000133
:1019A0008DF8051040F00C018DF8061040F008008D
:1019B0008DF8070064200090042301AA4E210248FC
:1019C000FFF718F81CBD00003800002010B50446D1
:1019D00002E0641C00F004F820780028F9D110BD62
:1019E0001CB500F0F00141F00D028DF8042041F02B
:1019F000090100018DF8051040F00D018DF8061069
:101A000040F009008DF8070064200090042301AA2B
:101A10004E210248FEF7EEFF1CBD000038000020FA
:101A200070B586B000241C4800940194029403947D
:101A3000816941F010018161816901F01001049117
:101A4000816941F004018161816901F0040104911F
:101A5000816941F0080181618069104E00F0080041
:101A60004FF400550490002229463046FEF7F3FE5D
:101A700001200095CDE9010402200390694630461B
:101A8000FEF7F4FDF020CDE9000469460448029415
:101A9000FEF7ECFD06B070BD0010024000100140E2
:101AA0000008014010B592B000240F941C21684634
:101AB0001094FEF749FC202107A8FEF745FC2C48AE
:101AC0002A4901601F21C0E9011442F20F71C0E9E7
:101AD000031444618461FFF74FFC08B172B6FEE75E
:101AE0000F940FA922481094FFF786FB08B172B635
:101AF000FEE76020CDE90004029403940494059469
:101B0000002269461A480694FFF7D0FB08B172B666
:101B1000FEE7042269461648FFF7C8FB08B172B613
:101B2000FEE7082269461248FFF7C0FB08B172B60B
:101B3000FEE70C2269460E48FFF7B8FB08B172B603
:101B4000FEE70794089409944FF400500A94CDE9F5
:101B50000B4007A906480E94FFF724FB08B172B6A4
:101B6000FEE70348FFF77CFB12B010BD002C0140DC
:101B70008C000020FEE7FEE770477047FFF708B8CB
:101B800030B58FB028216846FEF7DEFB14210AA885
:101B9000FEF7DAFB02250120049000951020059045
:101BA0000024C003CDE9084007956846FFF756F9C1
:101BB00008B172B6FEE70F200A90CDE90B540D94E0
:101BC00000210AA80E94FFF76DF8002801D072B624
:101BD000FEE70FB030BD7047F0B50268164B174CEA
:101BE000174D4FF08047984205D0B84203D0A0422D
:101BF00001D0A84203D122F070064A6832439842CD
:101C000005D0B84203D0A04201D0A84203D122F4AB
:101C10004074CA6822434C6922F080022243026069
:101C20008A68C2620A688262984201D109690163C6
:101C300001214161F0BD0000002C01400004004082
:101C40000008004010B501F01F030121046A99400B
:101C50008C430462016A9A401143016210BD000086
:101C600030B5036A026A22F00102026242688469A6
:101C700024F073050C682C4323F002058B682B437A
:101C80000A4DA8420BD123F00805CB6822F440721C
:101C90002B434D6923F0040315438A692A434260AC
:101CA000846149684163036230BD0000002C01403B
:101CB00030B5026A036A23F0100303624368846943
:101CC0000D6824F4E64444EA05248D6822F02002DD
:101CD00042EA05120B4DA8420ED1CD6822F08002D7
:101CE00042EA05124D6923F4406343EA85038D6996
:101CF00022F0400243EA85034360846149688163BE
:101D0000026230BD002C014030B5036A026A22F441
:101D1000807202624268C46923F4007324F0730580
:101D20000C682C438D6843EA05230C4DA8420ED164
:101D3000CD6823F4006343EA05234D6922F4405241
:101D400042EA05128D6923F4806342EA051242607B
:101D5000C4614968C163036230BD0000002C0140CA
:101D600030B5046A026A22F4805202624268C36992
:101D70000D6823F4E64343EA05238D6824F40054F8
:101D800044EA0534064DA84204D14D6922F480424C
:101D900042EA85124260C36149680164046230BD51
:101DA000002C014070B5044600680169E26821F426
:101DB0004051114301612169A068084361690843EA
:101DC0002168CA6841F20C639A430243CA602068E2
:101DD0004169A26921F44071114341611E492068A3
:101DE000884202D1FFF704F801E0FEF7F1FF00EBB3
:101DF000C00101EB0012606864218000B2FBF0F3C7
:101E0000B3FBF1F36FF018067343B2FBF0F5B2FBCE
:101E1000F0F605EB8305322303EB0515B5FBF1F571
:101E2000B6FBF1F605F0F00505EB0615B2FBF0F692
:101E3000B2FBF0F0B0FBF1F06FF01802504306EB8C
:101E4000800003EB0010B0FBF1F0216800F00F0000
:101E50002844886070BD0000003801402DE9F04141
:101E6000984617460E460446069D27E0681C25D076
:101E70002DB1FEF7F5FCA0EB0800A8421ED92068A2
:101E80000C3050E8001F21F4D07140E80012002A05
:101E9000F5D12068143050E8001F21F0010140E81E
:101EA0000012002AF5D1202084F8410084F8420075
:101EB000002084F840000320BDE8F081206800681D
:101EC00036EA000004D00020B842CFD00020F3E76B
:101ED0000120F9E7FEE70907090E002804DB00F1FD
:101EE000E02080F80014704700F00F0000F1E020BF
:101EF00080F8141D704700002DE9F041064641F2BC
:101F00007C50FEF7A1FB1D4D00244FF4C877F6B1BD
:101F1000042E22D0A4F2EE202968082EC0F1000081
:101F200021D008640620FEF78FFB641DBC42EEDD65
:101F30004FF4FA60FEF788FB40F2EE20AEB1042EBB
:101F400016D02968082E16D00864BDE8F0812968EB
:101F5000A4F2EE2040424863E4E72968A4F2EE20B0
:101F600040428863DEE7C863DCE729684863ECE742
:101F700029688863E9E7C863E7E700008C00002070
:101F800010B58020FFF702FD07A0FFF71FFDC0205E
:101F9000FFF7FCFC08A0FFF719FDBDE810404FF467
:101FA0007A70FEF751BB0000202020202020202046
:101FB0002020202020202000202020202020202041
:101FC00020202020202020200000000010B5032029
:101FD000FFF7DCFC3220FEF737FB0220FFF7D6FCD0
:101FE0003220FEF731FB0620FFF7D0FC3220FEF74F
:101FF0002BFB0C20FFF7CAFC3220FEF725FB282024
:10200000FFF7C4FC3220FEF71FFB8020FFF7BEFC69
:10201000BDE810403220FEF717BB0000FEF7C0FD00
:10202000FFF7AEFDFFF7FCFC3F483E49002401608E
:102030003E49C0E901144FF48041C0E903414461C5
:102040008461C4610462FEF711FC08B172B6FEE758
:10205000FFF728FD344836499C3001604FF4E131E8
:10206000C0E901140C21C460C0E904418461C46169
:10207000FFF712FA08B172B6FEE72B484FF0FF33B4
:1020800013222CA19C30FFF7CFFA00F005F9FFF7DF
:102090009DFF0120FFF77AFC3220FEF7D5FA802061
:1020A000FFF774FC28A0FFF791FCC020FFF76EFC3F
:1020B00027A0FFF78BFC40F6B830FEF7C5FAFFF714
:1020C0005FFF00F009F9012251032448FEF7C3FB2A
:1020D000234D0A212348FEF737F9224814211438EA
:1020E000FEF732F91F492C602C7164230A22A1F1FA
:1020F000C000FFF743FA1A491A4800F03BF868B1EC
:102100001848174A18A11438FEF766F815496423D1
:1021100014391422A1F1AC00FFF786FA00F03CF864
:10212000D7E700000054004038000020A0860100DE
:102130000038014053746172742041706C696361AE
:1021400074696F6E200A00004441544E0000000084
:102150005048414E4C4F41490000000000100140E2
:1021600010000020940100206B65793A25737C0AE9
:102170000000000070B50D4606463D21FEF7DAF876
:10218000002808D0841B224631462846FEF703F972
:1021900000202855012070BD2DE9F04135A13648B9
:1021A000FEF724F9344F354EBF1DA7F116044FF04A
:1021B000FF3804F11E05E0B131A1B81FFEF716F992
:1021C00020B330A1B81FFEF711F960B32EA1B81FDC
:1021D000FEF70CF9A0B32DA1B81FFEF707F90028F0
:1021E00045D120606060A060E060BDE8F04100F093
:1021F00073B829883046FEF729FB0128F9D03888C2
:10220000FFF77AFE2068401C206026E0698830468F
:10221000FEF71CFB0128F9D07888FFF76DFE606897
:10222000401C606019E0A9883046FEF70FFB0128CA
:10223000F9D0B888FFF760FEA068401CA0600CE0F1
:10224000FFE7E9883046FEF701FB0128F9D0F8885E
:10225000FFF752FEE068401CE06000F03DF84346A6
:10226000BDE8F04104220AA10A48FFF7DDB9BDE844
:10227000F08100006B3100001000002000080140D8
:102280006B3200006B3300006B340000727374001B
:102290006F6B0A00D400002010B500210D48FFF735
:1022A000ADF804210B48FFF7A9F808210948FFF70A
:1022B000A5F80C210748FFF7A1F8064840F2EE21E7
:1022C00002685163026891630268D1630068016427
:1022D00010BD00008C00002010B58020FFF756FBD9
:1022E000154C16A117482268FDF776FF1548FFF731
:1022F0006DFB8820FFF74AFB13A112486268FDF7C7
:102300006BFF1048FFF762FBC020FFF73FFB10A1F7
:102310000C48A268FDF760FF0A48FFF757FBC8208A
:10232000FFF734FB0CA10748E268FDF755FFBDE855
:1023300010400448FFF74ABB000000204C313A250A
:10234000640000001C0100204C323A2564000000AB
:102350004C333A25640000004C343A2564000000F8
:10236000010202030405060708090A0B0C0D0E0FF3
:102370001010000000000000000001020304060726
:10238000080900000000010203040000AC2300085B
:10239000000000203800000028010008E4230008A5
:1023A00038000020C80700004401000800000000B9
:1023B000000000000000000000000000000000001D
:1023C00000000C0000000400080010002000400085
:1023D000800000000100000010000000000000006C
:0423E0000024F400E1
:04000005080000ED02
:00000001FF
